:020000040800F2
:10000000D853002095030008374D00088F49000899
:10001000794B0008D13000080160000800000000A2
:10002000000000000000000000000000D5020008F1
:10003000553300080000000031030008415C00084F
:10004000AF030008AF030008AF030008AF030008C8
:10005000AF030008AF030008AF030008AF030008B8
:10006000AF030008AF030008AF030008AF030008A8
:10007000AF030008AF0300089D320008AF0300087B
:10008000A9320008B5320008AF030008AF0300082A
:10009000AF030008AF030008AF030008AF03000878
:1000A000AF030008AF030008AF030008AF03000868
:1000B000AF030008AF030008AF030008AF03000858
:1000C000AF030008AF030008AF030008AF03000848
:1000D000AF030008D15F0008DD5F0008E95F00089A
:1000E000AF030008AF030008AF030008AF03000828
:1000F000AF030008AF030008AF030008AF03000818
:10010000AF030008AF030008AF030008AF03000807
:10011000AF030008AF030008AF030008AF030008F7
:10012000AF030008AF030008C1320008AF030008A6
:10013000AF030008AF030008AF030008AF030008D7
:10014000AF030008AF030008AF030008AF030008C7
:10015000AF030008CD320008AF030008F55F0008C8
:10016000AF030008AF030008AF030008AF030008A7
:10017000AF030008AF030008AF0300080000000051
:10018000AF030008AF03000800F002F800F092F897
:100190000AA090E8000C82448344AAF10107DA45E2
:1001A00001D100F087F8AFF2090EBAE80F0013F0A2
:1001B000010F18BFFB1A43F0010318472481000008
:1001C00044810000103A24BF78C878C1FAD8520799
:1001D00024BF30C830C144BF04680C6070470000C1
:1001E0000023002400250026103A28BF78C1FBD840
:1001F000520728BF30C148BF0B6070476E2900F01E
:100200004085702901F09980662907F02B876529C0
:1002100007F02887672907F02587612907F02487D9
:1002200003681B0A28BF41F08001692900F0808122
:10023000642900F07D81752900F07A816F2901F031
:100240002680782901F06580E92900F0C187E4293A
:1002500000F0BE87F52900F0BB87EF2901F023806D
:10026000F82901F064800368DB0928BF41F08001B0
:10027000632901F0AF85732901F0B485E32901F00A
:10028000BF85F32901F0C485002070471FB507F032
:10029000DCFE01F085FB04000020002107F05CFC7F
:1002A000401C60600020002107F040FCE0601FBDA2
:1002B00010B510BD02F04CF81146FFF7E7FF06F04D
:1002C00031F802F0ADFA03B4FFF7F2FF03BC02F01D
:1002D000C3FA00002C4B19680868B0E8F04F80F3AF
:1002E0000988BFF36F8F4FF0000080F311887047CB
:1002F0000000000008480068006880F308884FF09C
:10030000000080F3148862B661B6BFF34F8FBFF36D
:100310006F8F00DF00BF00BF08ED00E0DFF80C00CA
:10032000016841F470010160704700BF88ED00E092
:10033000EFF30980BFF36F8F134B1A681EF0100F95
:1003400008BF20ED108A20E9F04F106009B44FF08B
:10035000500080F31188BFF34F8FBFF36F8F06F00B
:10036000B7FE4FF0000080F3118809BC19680868D7
:10037000B0E8F04F1EF0100F08BFB0EC108A80F309
:100380000988BFF36F8F704714000020EFF30580DA
:10039000704700000948804709480047FEE7FEE72C
:1003A000FEE7FEE7FEE7FEE7FEE7FEE7FEE7FEE725
:1003B00004480549054A064B70470000ED5C0008FB
:1003C00089010008D84D0020D8530020D84F0020C4
:1003D000D84F002053EA020C00F069802DE9F04B61
:1003E0004FF00006002B1FBFB3FA83F503FA05F4A4
:1003F00024FA05F65E4012BF1643B2FA82F502FAFD
:1004000005F4C5F120051EBF22FA05FC44EA0C04E0
:10041000203556EA044C4FEA144418BF641C4FF0D0
:1004200000084FF00009904271EB030C39D300290A
:1004300019BFB1FA81F701FA07F6B0FA80F700FAAE
:1004400007F6C7F120071EBF20FA07FC46EA0C0694
:100450002037B6FBF4FCA7EB0507103F07F01F0B96
:10046000CBF120060CFA0BFB2CFA06F644BFB34680
:100470000026202FA4BF5E464FF0000B5BEA060C5F
:1004800008BF4FF0010B19EB0B09ABFB027C48EBEB
:100490000608C01B06FB02CC0BFB03CC71EB0C0166
:1004A000C1E70B46024641464846BDE8F08B13B50E
:1004B0004FF000004FF00001AFF30080BDE81C409A
:1004C000704700007CB51D4616460C00009001D018
:1004D0002044401E074B7B442A4669460190304623
:1004E00000F0F7FD05461CB10020694600F004FE4F
:1004F00028467CBD290C00000FB47CB50C0009AA6D
:10050000009001D02044401E084B7B446946019076
:10051000089800F0DEFD05461CB10020694600F099
:10052000EBFD28467CBC5DF814FB0000F50B0000D9
:100530002DE9F0410646002410687529314616A5BC
:1005400010D000F00AFB002802DA404213A507E0B1
:1005500031688A0701D512A502E0490704D511A523
:10056000012401E000F002FB00210A2206F1240729
:1005700009E0B0FBF2FCB0FBF2F302FB1C003030F0
:1005800078541846491C0028F3D123462A463046A1
:10059000BDE8F04100F01CBB000000002D00000091
:1005A0002B000000200000002DE9F05F8946044682
:1005B0004FF0000ADFF874B1FB44C0F820A02046D9
:1005C000E1688847002874D0252806D0D4E90121A5
:1005D0009047206A401C2062F1E700265F462046D3
:1005E000E16888472028054607DB312D05D27819B8
:1005F00010F8200C08B10643F1E7B00701D526F04A
:100600000406C4F81CA00027C4F818A02A2D09D09D
:10061000284605F038FE38B304EB8708303DC8F8AB
:10062000185019E059F8041B204604EB8702916129
:10063000E1688847012F054618D1E069002820DAD3
:1006400026F020061DE0D8F8180000EB800005EB2E
:1006500040003038C8F818002046E1688847054651
:1006600005F011FE0028EED1012F0AD02E2D08D161
:100670002046E16888477F1C0546022F46F0200689
:10068000C4DBA069002803DA404246F00106A061FD
:10069000F00701D026F010066C2D0BD0682D09D084
:1006A0004C2D39D06A2D35D0742D35D07A2D33D0DC
:1006B00016E038E0E1682F4620468847B8420546F4
:1006C00009D16C2F26D04FF48060E16806432046A4
:1006D0008847054604E06C2F1AD04FF4807006431B
:1006E0000DB3A5F14100192802D8203546F4006663
:1006F0004A462946204626604E46FFF77FFD80B1D8
:1007000001280BD0F61D26F0070000F1080956E776
:100710004020E4E78020D8E70020D6E706F104096E
:100720004DE7284652E7206ABDE8F09FFC7B0000B9
:100730000FB400B58DB010A9099000910B904FF047
:10074000FF300A9000200C90064878440690064836
:1007500078446A4607900F9909A801F07BF80DB01C
:100760005DF814FB271100003F1100002DE9FF5F29
:100770004FF000089946144646469169D2E901A710
:10078000DDF838B001988847054659EA0B0005D0D6
:1007900009E0A1690198761C88470546216A284628
:1007A00088470028F5D1681C03D05FEACA7005D0DD
:1007B00015E04FF0FF3004B0BDE8F09F2068011D48
:1007C0002160D0F800800AE05FEACA7001D108F821
:1007D000015BA169761C01987F1E88470546002FA2
:1007E0001ADD681C18D0B9F1000F0DD0E81705EB21
:1007F000D060421120F01F0059F822102A1A01205F
:1008000090400142E0D107E0BBF1000FDCD1284667
:10081000216A88470028D7D0E16901988847BBF151
:10082000000F07D1002E05DD5FEACA7002D100215A
:1008300088F80010A068B84203DDBBF1000F03D0B8
:1008400017B16FF00100B6E73046B4E770B5064661
:1008500000F058F90468054630460A22002101F0EC
:1008600029F82C6070BD401ECAB210F8011F8A42E0
:1008700002D00029F9D10020704710B5431C02E0D6
:1008800010F8011B71B18107FAD14FF0013202C893
:100890008C1A8C4314EAC211F9D0C01A0A0603D08C
:1008A000C01E10BDC01A10BD0A0401D0801E10BDAC
:1008B0000902FCD0401E10BD40EA010370B59B0741
:1008C0002ED14FF00136042A2AD308C810C99D1B27
:1008D0009D43121F15EAC61517D0D8B2E1B2401ACF
:1008E00050EA056110D198B2A1B2401A50EA054110
:1008F0000AD123F07F4024F07F41401A50EA0521BD
:1009000002D1180EA0EB146070BDA342DBD018BA60
:1009100021BA884201D9012070BD4FF0FF3070BD6F
:100920000AB9002070BD10F8013B11F8014B63B10A
:10093000A3420AD1521E08D010F8013B11F8014B16
:100940001BB1A34201D1521EEDD1181B70BD032A69
:1009500040F2308010F0030C00F0158011F8013BDC
:10096000BCF1020F624498BF11F801CB00F8013BC3
:1009700038BF11F8013BA2F1040298BF00F801CB87
:1009800038BF00F8013B11F0030300F0CB87083AB1
:10099000C0F0088051F8043B083A51F804CBA0E8B5
:1009A0000810F5E7121D5CBF51F8043B40F8043B0A
:1009B000AFF30080D20724BF11F8013B11F801CB3F
:1009C00048BF11F8012B24BF00F8013B00F801CB10
:1009D00048BF00F8012B704702F0FF0343EA0322EF
:1009E00042EA024200F002B84FF000020429C0F0CF
:1009F000128010F0030C00F01B80CCF1040CBCF151
:100A0000020F18BF00F8012BA8BF20F8022BA1EBA2
:100A10000C0100F00DB85FEAC17C24BF00F8012B87
:100A200000F8012B48BF00F8012B70474FF000027F
:100A300000B5134694469646203922BFA0E80C50D4
:100A4000A0E80C50B1F12001BFF4F7AF090728BFAF
:100A5000A0E80C5048BF0CC05DF804EB890028BF2B
:100A600040F8042B08BF704748BF20F8022B11F054
:100A7000804F18BF00F8012B704700004FF0013C79
:100A800050F8042B51F8043B9A4221D1A2EB0C03FD
:100A9000934313EACC1317D150F8042B51F8043BBD
:100AA0009A4215D1A2EB0C03934313EACC130BD15A
:100AB00050F8042B51F8043B9A4209D1A2EB0C03E5
:100AC000934313EACC13DBD04FF00000704700BF14
:100AD000D01A01BAB1FA81F101F0180122FA01F03D
:100AE000CB40C1F12001DBB2C0B2C01A2CFA01F335
:100AF000D11A914311EAC311E6D17047704770478C
:100B00007047000000487047784D002070B50446DB
:100B100085690068C10601D5302600E02026C0079F
:100B200007D070BDD4E9012130469047206A401CAF
:100B300020626D1EF6D570BD70B5044685690078DB
:100B4000C00707D170BDD4E9012120209047206A59
:100B5000401C20626D1EF6D570BD09684A0501D59E
:100B600040B27047C905FCD500B2704709684A0514
:100B700001D5C0B27047C905FCD580B2704770B5C9
:100B80000C460546012A05D02878800600D5EA697A
:100B9000002302E0012305E05B1C934202D2E05CEB
:100BA0000028F9D1A869E618C01AA861286A184473
:100BB00028622846FFF7AAFF04E0D5E9012114F8CE
:100BC000010B9047B442F8D32846FFF7B5FF70BD3C
:100BD0002DE9F0470D4699469246044600F1240857
:100BE0000168880604D5E06921F01001216000E069
:100BF0000120A84201DD471B00E00027A1697A1906
:100C000002EB0900081AA0612078C00602D4204631
:100C1000FFF77CFF002608E0D4E901211AF806005E
:100C20009047206A401C761C20624E45F4DB2078F9
:100C3000C0060AD52046FFF769FF06E0D4E9012186
:100C400030209047206A401C2062381EA7F101071F
:100C5000F4DC07E0D4E9012118F805009047206A88
:100C6000401C2062281EA5F10105F3DC2046FFF799
:100C700063FF2078000602D50220BDE8F08701203E
:100C8000FBE711680268006A530501D508700AE0A5
:100C9000D30501D5088006E0130603D5C217C1E9C4
:100CA000000200E008600120704770472DE9FF4F07
:100CB0000C461E464FF0FF378BB0D2E90001DDF83D
:100CC00060800A908A46C1F30A5505B93D46002165
:100CD00008464FF00000BAF1000F00F4400005DABA
:100CE00000EB80004FF4400101EA50004FEA9059B8
:100CF000B9F1010F00DDB9460A9850EA4A000ED05A
:100D000044F61050A5F2FF3545432F14B8F1000FFB
:100D10001ED07542291E1EDDC9F100021CE0B8F18B
:100D2000010F4FF0000001D0302103E0F24305E055
:100D30002154401CB042FBDB3046002200212154EC
:100D40000B99C1F80880C1E900200FB0BDE8F08F11
:100D5000BD1B6D1CDEE74A4600DA694206A801F0B9
:100D600065FA06AB93E8070003AB83E8070050463B
:100D70000A9901F078FD8DE80700A0F500501F38B2
:100D800000900398002D0ADD42F21F014A460844F4
:100D9000002303A90390684602F024F809E0A0F5B7
:100DA00000504A461F38002303A90390684602F00A
:100DB00043F88DE807000004000C03D04FF0FF302B
:100DC000410800E01046B8F1000F03D00022009265
:100DD00015461EE0751E05D400F0E6FD3032625562
:100DE0006D1EF9D5B3460122084302D000227F1CB4
:100DF00004E02078302801D100227F1E002A0997C4
:100E000084D01DE0112D07DA00F0CEFD303262559E
:100E10006D1C50EA0102F5D1084302D00098C8B118
:100E20000EE00021681E05E0235C625C63542254DE
:100E3000401E491C8142F7DBAB46A81B401E0990AF
:100E4000002004F80B000B98099AC0F80880C0E94C
:100E5000002B7AE711264FF0000857E72DE9F04FF5
:100E600088460446D21D22F0070191B0D1E9000165
:100E7000CDE90A0105F0C5F802460B98C00F01D074
:100E80002D2007E02068810701D52B2002E02021DA
:100E900001EAC000032A099001D0072A05DB0346B6
:100EA0004146204600F04CFF0BE12078800601D53A
:100EB000E06900E00620B8F1650F814606D0B8F180
:100EC000660F18D0B8F1670F70D131E00020B9F18A
:100ED000110F009001DB112301E009F101030AAABF
:100EE00001A90CA8FFF7E2FEDDE90C70002609F16C
:100EF0000105834647E001204B4600904FF0004734
:100F00000AAA01A90CA8FFF7D1FEDDE90DB00C99E2
:100F10005D46002610B909F101000D18B9EB050076
:100F200003D4C0F1FF3609F10105A5EB09002BE060
:100F3000B9F1010F01DA4FF001090020B9F1110FE9
:100F40000090484601DD112300E003460AAA01A9EA
:100F50000CA8FFF7ABFEDDE90C704D46002683467A
:100F6000207800070AD4AB4500DA5D4601A8012DC0
:100F700004DD411911F8011C302907D04F4502DA70
:100F800017F1040F04DA012082460FE06D1EEEE730
:100F9000002F02DCED1B3E4403E0781CA84200DD7C
:100FA0007D1CB81B00F1010A4FF0004720780007B4
:100FB00003D4AA4501DB4FF0FF3A0021B7F1004FFF
:100FC0000DF143088DF8431024D002202B23002F6D
:100FD00001DA7F422D230A21021EA0F1010000DC6C
:100FE0005FB197FBF1FC97FBF1F201FB1C7C17460C
:100FF0000CF1300C08F801CDEEE7A8F10100037008
:101000002188090501D5452100E06521A0F10108ED
:1010100000F8011C09980FA9A1EB0807FF1D00B1FA
:101020000120411901EBEA70A1693844081A401EF9
:10103000A0612078C00602D42046FFF767FD09981A
:1010400028B1D4E901219047206A401C2062207811
:10105000C00622D52046FFF759FD1EE0002E04DB16
:10106000B34502DD01A8805D00E03020D4E9012114
:101070009047206A401C2062761CAAF101005FEABA
:10108000000A0AD100F08CFCC0680168405CD4E919
:1010900001219047206A401C2062281EA5F101050D
:1010A000DCDC07E0D4E9012118F8010B9047206A45
:1010B000401C2062381EA7F10107F3DC2046FFF731
:1010C0003BFD032011B041E601694A1C026108782A
:1010D000704700B58FB0CDE9013100210591054978
:1010E0007944CDE9031011466846FFF75DFA0FB069
:1010F00000BD0000E5FFFFFF0A6802F8010B0A606F
:101100007047D1E900239A4202D2531C0B60107041
:10111000704700002DE9FF5F15468A460446DFF858
:10112000AC80F8440027D8E900103E46CDE9001015
:1011300010E03AF816106A4602A801F0E9F8411CDE
:1011400007D02178890603D5E269391891420DD874
:101150000744761C2078800602D5E069B84205DD98
:10116000AE42E6DB3AF816000028E2D1A069C01BC7
:10117000A0612046FFF7CAFCD8E90010CDE90010B5
:10118000002017E03AF818106A4602A801F0C0F8EB
:10119000B0F1FF3F81460BD000250DF1080B05E0B3
:1011A000D4E901211BF8050090476D1C4D45F7D38C
:1011B00008F10100B0428046E4DB206A3844206236
:1011C0002046FFF7B9FCBDE8FF9F0000A6700000B5
:1011D0002DE9F0418046D21D22F007020025D2E918
:1011E0000002F52915A614D0011E72F1000106DADD
:1011F0000023D0EB030063EB020211A608E0D8F84D
:1012000000108B0701D50FA602E0490701D50EA6F5
:1012100001251146002408F1240704E000F0C4FB76
:1012200030323A55641C50EA0102F7D12B4632465F
:1012300021464046BDE8F041FFF7CABC000000006F
:101240002D0000002B0000002000000030B4002121
:1012500000F1240408E002F00705D208303542EA24
:101260004372DB086554491C52EA0305F3D1046854
:10127000002310A2250707D5A40600D421B1C46914
:1012800001230DA2641EC46130BCFFF7A1BC10B5E0
:10129000044621461068FFF769FC02462046BDE877
:1012A00010400023D2E7D21D22F00701D1E900232C
:1012B000CCE700000000000030000000F0B40D4654
:1012C0000188090502D5214C7C4402E01F4C7C4476
:1012D0000E34002100F1240608E002F00F07120985
:1012E000E75D42EA03721B097754491C52EA03077F
:1012F000F3D102780023120704D5702D06D009B16E
:10130000022311342246F0BCFFF762BC01231034E3
:10131000F8E770B504460D4621461068FFF726FC35
:10132000024629462046BDE870400023C6E7D21D8C
:1013300022F00703D3E90023C0E70368126843F0F3
:10134000200303600823C3610023B7E7086F000090
:101350002DE9FF4F06468BB00878FF2806D0491CC0
:101360002D2805D000244FF0000908E000200CE0F3
:101370000124F8E709EB8903491C00EB43090878CD
:10138000FF28F7D114B1C9F100008146107800257B
:101390002C46AA4629462D2801D02B2804D1521CC0
:1013A0002D2813D0002082468B461078FF280FD0BE
:1013B0004FF0000C0A21521CA5FB017804FB0181AF
:1013C00005FB0C11C5194BEB0104EEE70120EAE720
:1013D000002108464FF00000BAF1000F02D000EBE8
:1013E00080004008C0F38157012F01DD4FF0FF3727
:1013F0000E9955EA040009EB01080BD04FF00209E1
:1014000018F5FA7F16DA4FEACA70002F706008DD0F
:10141000012007E04FEACA70C6E900B00FB0BDE88E
:10142000F08F00203060FFF76DFBC0F800901821AE
:10143000084616E0B8F5FA7F18DD002F02DAF74803
:10144000784401E0F6487844D0E90010C6E900107D
:1014500040EACA707060FFF755FBC0F80090142195
:1014600008460FB0BDE8F04F06F0F9BD0021084670
:101470004FF00000B8F10001099002DAC7F1000254
:1014800000E03A4601DAC8F1000106A800F0CEFEFD
:1014900006AB93E8070003AB83E8070044F23E0085
:1014A0005BEA04010090584604D144F21E012C4628
:1014B0005D460091210C0904014306D100992404E2
:1014C00044EA15442D041039009104F07F41014392
:1014D00006D10099240244EA15642D0208390091CE
:1014E00004F07041014306D10099240144EA1574C7
:1014F0002D01091F009104F04041014306D10099DC
:10150000A40044EA9574AD00891E009104F00041E6
:10151000084304D100986D196441401E00904FF0BB
:1015200001033A466846B8F1000FCDE9014503A929
:1015300002DD01F096FC01E001F069FCBAF1000F58
:1015400004460D4601D084F00044002108464FF0C7
:101550000000099940F2FF77484010F00C0F07D1C6
:1015600024F00040284303D0C4F30A50B84212D1FB
:10157000FFF7C8FAC0F80090C4F30A50B8420AD185
:10158000A8487844D0E90010C6E9001004F00041F2
:101590000843706042E7C6E900543FE72DE9FF4F7A
:1015A0001F464FF0000A4FF0FF38454691B0D7E98B
:1015B0000146CDF83CA000F0F3F9C0680168405C3A
:1015C0001090B96912986D1C8847396A814688471E
:1015D0000028F6D1B9F1FF3F0AD0002E24F4D064E0
:1015E00011DDB9F12B0F08D0B9F12D0F0BD102E0AD
:1015F000404615B013E744F48064B96912986D1C35
:101600008847761E8146600504A901D52D2000E09B
:101610002B20002E01F1010B0DF130088DF8100088
:101620003FDDB9F1690F08D0B9F1490F05D0B9F123
:101630006E0F02D0B9F14E0F1CD13B4601A80095A8
:1016400080E85002DDE912126FF0020006F072FD30
:10165000C11CCED10EE0B96912986D1C8847814635
:101660001398761E44F4007405600F98401C002EF9
:101670000F9016DDB9F1300FEDD0B9F1780F02D02F
:10168000B9F1580F0DD10F9801280AD13B46CDE989
:101690000054DDE91212001F029606F049FDC11C3C
:1016A000A7D1109989453ED144F0800406E01399F2
:1016B000681CAAF1010A44F400740860B9696D1C41
:1016C0001298761E884730288146F0D02BE010997A
:1016D000894505D1200603D4761E44F0800418E025
:1016E000484604F0D0FD08B3761E0DF123018B456A
:1016F00044F4007408D2A9F130000BF8010B200665
:1017000007D5AAF1010003E0200602D40AF1010086
:101710008246A00502D51399681C0860B969129821
:101720006D1C88478146002ED1DC53E0002E51DD30
:10173000B9F1650F02D0B9F1450F4BD1A00549D5DC
:10174000B9696D1C1298761E24F440748847002EE7
:1017500081460CDD2B2804D0B9F12D0F07D144F4BC
:101760008074B96912986D1C8847761E8146E00521
:1017700001D52D2100E02B2108F8011BCDF80080B8
:1017800021E0761E0DF13901884544F400740CD235
:10179000A9F1300010F0FF0088F8000002D1009994
:1017A000884509D908F1010806E0E00501D51E4881
:1017B00001E042F20F708246B96912986D1C8847A9
:1017C000814613980560002E04DD484604F05BFD59
:1017D0000028D6D1F96912988847FF2053468BF824
:1017E000000088F8000000200A900B9004AA0CA9C1
:1017F0000AA8FFF7ADFDA00502D46FF00100F8E6DE
:1018000014F0240F12D0E0071CD13868DDE90A1269
:10181000031D3B600068C0E9001213E0C46E0000C5
:10182000B66E00007A6D0000F1D8FFFF0AA9684685
:1018300004F016FDE00705D13868009A011D3960F3
:10184000006802602846D4E60268114413780160FB
:1018500018467047D160054979445161044979447B
:10186000116200211161114600F0D6BAEDFFFFFFB1
:10187000D1010000426842B1016811F8013B23B177
:10188000521EC0E90012184670470121C160881E2F
:10189000704742685AB1C368016843B983688B4294
:1018A00005D0491E521CC0E90012002070474FF0BD
:1018B000FF3070472DE9F04791460F4680460446B9
:1018C000002614F8015B2DB100F062F80068405D5D
:1018D000C007F6D12B2D02D02D2D18D0641E4A46FC
:1018E0003946204600F052FC27B13968A14201D1A7
:1018F000C7F800804FF0020471050BD54042002864
:1019000003DDFFF7FFF80460A007BDE8F08746F4A9
:101910008066E4E70028F8DAFFF7F4F804606FF077
:101920000040F2E710B5203AC0F00B80B1E8185043
:10193000203AA0E81850B1E81850A0E81850BFF4B9
:10194000F5AF5FEA027C24BFB1E81850A0E8185058
:1019500044BF18C918C0BDE810405FEA827C24BFAC
:1019600051F8043B40F8043B08BF7047D20728BF3A
:1019700031F8023B48BF11F8012B28BF20F8023B89
:1019800048BF00F8012B704700487047784D002091
:1019900010B500F005F8001D10BD00BFBD610000CE
:1019A00000487047984D002030B5B0F10A024FEA68
:1019B000900E71F100034EEA817EB0EB0E0061EBF8
:1019C00091014FEA101E4EEA017E10EB0E0041EB32
:1019D00011114FEA102E4EEA016E10EB0E0041EB92
:1019E00011214FEA104E4EEA014E10EB0E0041EB72
:1019F0001141401841F100014FEAD00040EA417026
:101A00004FEAD10110EB80054FEA810444EA90745B
:101A100044EB01046D1944EB0404521BA3414FF045
:101A2000000348BF0A3200D530BD401C41F100011F
:101A300030BD10B50446FFF7ABFF0068005D00F055
:101A4000010010BD2DE9F04F04460D46D21D22F0D5
:101A5000070089B0D0E900974846394604F0D1FA2A
:101A60000246F80F01D02D2307E02068810701D539
:101A70002B2302E0202101EAC0038DF820300BB1B6
:101A8000012000E00020032A824601D0072A04DB5F
:101A90002946204600F054F93FE12078800601D421
:101AA0000D2500E0E569C7F30A560D2D49DA00213E
:101AB0004FEA175B08464FF00000002F00F440008B
:101AC00007DA00EB80004FF4400100EBD07001EA30
:101AD00060008115012901DD4FF0FF3100224FEA3E
:101AE000850CBCF1180F06D31346ACF118004FF06B
:101AF0008052C24003E04FF4801323FA0CF30CF140
:101B00000C0CBCF1200F04D3ACF1200C09FA0CF042
:101B100001E007FA0CF000294FF0004801DD18B988
:101B20000FE00ED140450CD319EB02095F4121B9FA
:101B3000404502D19F4329EA0209BBEB175F00D061
:101B4000761C2088000502D57B48784402E07A485C
:101B50007844193808AA302302F80A30037C0AF1C5
:101B60000101002E0AF1020A53546A4602DC4FF0CA
:101B7000300101E04FF031014FF001088DF8001005
:101B800002D0A6F2FF3603E059EA470100D06B4EBF
:101B9000002D02DC2178090704D54FF002082E2120
:101BA0008DF80110C44600210BE0C7F303433F0149
:101BB000C35C491C6D1E02F80830052908F10108B4
:101BC00001DA002DF1DC00210CE000EB1973491C57
:101BD0001B786D1E082902F808304FEA091908F130
:101BE000010801DA002DF0DC21688B0602D516E031
:101BF000A8F10108E04505DD02EB080313F8013CFC
:101C0000302BF5D0B8F1000F09DD02EB080313F813
:101C1000013C2E2B03D1090701D4A8F10108002DA6
:101C200005DD3E2102F808106D1E08F10108407C18
:101C3000002E02F8080008F1010804DA2D2076428F
:101C400002F8080002E02B2002F808000A214FF4F5
:101C50007A70864208F101080BDB96FBF0F3303313
:101C600002F8083096FBF0F308F1010800FB136658
:101C700001E0642E0CDB642096FBF0F3303302F8B5
:101C8000083096FBF0F308F1010800FB136601E051
:101C90000A2E06DB96FBF1F0303002F8080008F15E
:101CA000010896FBF1F001FB1060303002F80800EB
:101CB000A16908F1010808EB050202EB0A00081A05
:101CC000A0612078C00602D42046FEF71FFF216ADB
:101CD00008AE01EB0A00206204E0D4E9012116F805
:101CE000010B9047BAF1010AF7D22078C00602D55D
:101CF0002046FEF70BFF6E4609E016F8010B3E2862
:101D00000FD0D4E901219047206A401C2062B8F12D
:101D10000108F2D22046FEF70FFF09B00320BDE80C
:101D2000F08F206A2844206203E0D4E901213020AA
:101D300090476D1EEBD3F8E7C166000002FCFFFF81
:101D40002DE9F0411F46044603260168072A01F4E5
:101D5000006004DB08B116A505E016A503E008B194
:101D600015A500E015A521F010002060A069C01E97
:101D7000A0610FB1401EA0612046FEF7C7FE4FB123
:101D8000D4E9012138469047206A401C2062C01CDB
:101D9000206206E0206AFAE7D4E9012115F8010B78
:101DA0009047761EF8D22046FEF7C6FEBDE8F081C9
:101DB0004E414E006E616E00494E4600696E6600EF
:101DC00010B5436913B1AFF3008001E0FEF7D7FE11
:101DD000012010BD127800F124010A7000224A701F
:101DE0000122EDE711684FF0FF32E9E710B54369D2
:101DF00013B1AFF3008001E0FFF78CF9012010BDB3
:101E0000128800F1240182840022C2840122EDE7BD
:101E100011684FF0FF32E9E72DE9F34F4FF0000A68
:101E20000C4656468DB001200C9001F10C000B9031
:101E300062690B9801219047051E2DD0252D2CD0CD
:101E4000216A8847C0B162690B9801219047216AD5
:101E500088470028F7D16269411E0B98904700E03F
:101E6000761CA1690D988847216A88470028F7D118
:101E7000E1690D988847DBE7A1690D988847A8427A
:101E8000074601D1761CD3E7E1690D9888477F1C8E
:101E900002D1BAF1000F6FD06CE162690B98002794
:101EA0003D46394690472A2804D162690B980121A2
:101EB00090470125DFF8D08262690B980121904795
:101EC000A0F130010A290AD24745E5DC07EB87017A
:101ED00000EB4107303FDFD445F01005ECE7E906A1
:101EE00001D46FF000476C280AD04C2814D0682821
:101EF00015D06A280DD074281CD07A281AD01DE07D
:101F000062690B98012190476C2802D045F00405C6
:101F100014E045F002050DE045F020050AE0626995
:101F20000B9801219047682802D045F0080505E08C
:101F300045F4006562690B9801219047C4E9015797
:101F400065283DD019DC58287AD00CDC452837D0DC
:101F500004DC252826D041289ED131E046282FD008
:101F6000472899D12CE05B2877D0612828D06328B6
:101F70007CD0642823D15AE0F7E06F2848D008DCF1
:101F800066281DD067281BD0692821D06E2816D15D
:101F900027E0702845D0732868D0752847D0782866
:101FA0000DD14DE0A1690D988847252805463FF4DD
:101FB00069AFE1690D9888476D1C3FF46AAFD9E0BD
:101FC0000D9923466A466FF0010006F0AFF8C6E0AF
:101FD00045F0400023464FF000026060A80736D469
:101FE0003EE0E8077FF447AF2068011D21600068EC
:101FF000290501D506701BE7290701D5068017E7DB
:10200000A90703D5F117C0E9006111E706600FE7E2
:1020100045F0400023464FF008026060A80716D440
:102020001EE040F60E0125EA0100606016E045F072
:10203000400023464FF00A026060A80707D40FE073
:1020400045F040006060A80708D5234610220D998E
:102050006FF00100AFF3008081E007E0102223461B
:102060000D996FF00100AFF3008078E04FF00009A8
:1020700063284F46C8464B46CB4602D05B2807D064
:1020800039E02079C00601D40120A060012732E0A8
:102090006269D4F80CB00B98012190475E2807D1F3
:1020A0004FF0010949466269D4F80CB00B9890478B
:1020B000216939B900210A4603AB43F82120491CA4
:1020C0000829FADBD8B3216949B308F1010862692C
:1020D0000B98012190475D28F4D1B9F1000F09D088
:1020E000002003A951F82020D24341F82020401CB1
:1020F0000828F7DB03AB2069002820794FEA4070FD
:102100001ED05B462246CDF80080CDE901970D999F
:1021100000286FF0010020DAAFF300801FE0C11744
:1021200003AA00EBD1614B1121F01F0102EB8302E6
:10213000411A13680120884003431360C7E719E080
:102140000D99224600286FF00100009702DAAFF3E4
:10215000008004E0FEF70AFB01E0AFF300800028F6
:102160000ADA401C06D10C9820B14FF0FF300FB0B6
:10217000BDE8F08F5046FAE7E90701D10AF1010AFC
:10218000064400200C9053E6CCCCCC0C2DE9F05F3B
:10219000824615468B4600270AF10104B9460078AD
:1021A000302801D09DB113E014F8010B01277828E5
:1021B00003D0582801D045B10AE00DB1102D07D148
:1021C000002714F8010B102502E0082500E00A257D
:1021D0000026B0460EE005FB080005FB06F10127CE
:1021E0001FFA80F801EB1046B6F5803F00D3B946E0
:1021F00014F8010B294600F0DBF80028EBDABBF1FC
:10220000000F05D00FB1641E00E05446CBF800402B
:10221000B9F1000F06D0FEF775FC02210160C81E5F
:10222000BDE8F09F48EA0640FAE700002DE9F047D4
:10223000814616468AB0354878440DC88DE80D00B1
:1022400032487844801C03AC0DC884E80D0041F688
:102250009B300844372190FBF1F290FBF1F5A5F19A
:10226000800501FB12041B3C02D56442012000E002
:102270000020DFF898A080460027FA44AAF1BE0AA1
:102280000EE0E0070AD03246684607EB470101231B
:102290000AEB810100F0D0FD8DE8070064107F1C7F
:1022A000002CEED1194F7F44AE3F19E0E80715D05E
:1022B00007EB04100DF1180A90E80E008AE80E00F2
:1022C000C068F04201D1981908903246012306A94E
:1022D00003A800F0B1FD03AB83E807006D10641C98
:1022E000002DE3D14FF0010332466946B8F1000FEB
:1022F00003A802D000F076FD01E000F09DFDC9E9E1
:102300000001C9F808200AB0BDE8F0876460000049
:1023100070B516460C460546FFF73AFB036893F87E
:102320000101012806D0FF2C0FD8185D68B10120EB
:102330002C7070BDD3F807013246214603F2071313
:1023400003442846BDE8704018474FF0FF3070BD89
:102350007546FFF719FBAE4605006946534620F067
:102360000700854618B020B5FEF722F8BDE82040EA
:102370004FF000064FF000074FF000084FF0000B41
:1023800021F00701AC46ACE8C009ACE8C009ACE8F4
:10239000C009ACE8C0098D46704710B5FEF7B2FB26
:1023A000006810BD10B50446FEF7ACFB046010BD1C
:1023B0003A2800D2303820F02002412A01D3A2F17D
:1023C0003700884201D34FF0FF3070472DE9FF4FAF
:1023D0001F464FF03C0987B04FF00042DDE9141072
:1023E00001F10108DDF858A002EA405003900020F6
:1023F00005908346054604460490B969461E089830
:102400008847AAF1010A0290BAF1000F3BDD029859
:102410002E2815D01021FFF7CBFF00282EDB4FF020
:10242000010B0599014317D0B9F1000F0BDB4A46A8
:10243000C11700F0FEF905430C43A9F1040905E0BA
:10244000012004900BE008B145F001050120059042
:10245000049820B9361D02E0049800B1361FB9690E
:10246000089808F101088847BBF1000FAAF1010A9A
:102470000290C9D00999C1F80080C5E70298702878
:1024800008D0502806D0F96908988847BBF1000F9A
:1024900014D04FE0002002900120BBF1000F049007
:1024A00009D0B969089808F101088847AAF101091B
:1024B000B9F1000F07DCF969089888476FF001004F
:1024C0000BB0BDE8F08F2B2804D02D280CD14FF095
:1024D000FF300490B969089808F101088847A9F10C
:1024E0000109B9F1000FE6DD411CE4D00A21FFF734
:1024F0005FFF0028DFDB029908F1010801EB810191
:1025000000EB41000290B969089888470A21FFF75B
:102510004FFF099AA9F10109B9F1000FC2F8008033
:1025200001DD0028E7DAF9690898884704990298DC
:1025300000FB016655EA040004D004F040410900A4
:1025400002D006E0039898E0A40044EA9574AD0038
:10255000B61E04F00041080002D16D196441761ED8
:10256000159810F0240F03D04FF00B095C4803E0DE
:102570004FF028096FF07D008246564507DAAAEB36
:1025800006018944B9F1410F01DD4FF041090120F5
:102590000021A9F1010200F04CF9024628400B4647
:1025A0002140084301D0012100E00021501E02918A
:1025B00043F1FF3128402140084301D0012000E0D1
:1025C00000200299834651EA0B014FD000210846B2
:1025D0004FF00000039900F4400039B100EB800097
:1025E0004FF4400100EBD07001EA60008015012833
:1025F00002DD4FF0FF3000E013D0401C36D00298CF
:1026000060B3BBF1000F0CD14A460120002100F05D
:1026100010F928402140084301D0012000E00020AB
:10262000E0B101204A46002100F003F903464019B9
:102630000A4661412D1A8C4111D3B9F1400F09DDD1
:10264000159810F0240F02D0AAF1340603E0AAF185
:10265000170600E0761C00254FF0004406E05B1EE4
:1026600042F1FF3220EA030521EA0204CAF1010027
:10267000B04206DA1B4903980843019000200090FD
:102680000EE0039AC4F3D321E80A0A43164940EA4C
:1026900044500A433146CDE90002684603F0E9FDA3
:1026A000159810F0240F0BD01598C00715D1386875
:1026B000DDE90012031D3B600068C0E900120CE078
:1026C00002A8694603F0CCFD1598C00705D138680B
:1026D000029A011D3960006802604046F0E6000081
:1026E00002FCFFFF0000F07F0000F03F2DE9FF4FEC
:1026F00092461D4685B04FF00041DDE9124BDDE901
:1027000014727F1E01EA4B50414940F0FF4940EAF4
:102710000108002122F020004928049102D04E280F
:1027200028D04CE03BA0012607C88DE80700A96926
:102730000698641C88477F1E014606D41DF80600D3
:1027400018B121F0200181420BD0E9690698884731
:10275000032E34D0082E32D06FF0010009B0BDE84E
:10276000F08F761C032E01D0082EE0D1601CCAF831
:102770000000DCE7A9690698641C88477F1E2AD4FC
:1027800020F02000412826D1A9690698641C8847BA
:102790007F1E20D420F020004E281CD1A969069865
:1027A000641C88477F1E48F4002849F48009CAF851
:1027B000004001D4282806D0E969069888475FEAD6
:1027C000CB7012D022E0A9690698641C88477F1E4E
:1027D00001D4002803DAE96906988847BCE729286C
:1027E000F1D1641CCAF80040E9E71BF0240F07D0C0
:1027F00028680499031D2B600068C0E9001805E0F3
:102800002868021D2A600068C0F800902046A5E7ED
:102810000000F07F494E46494E49545900000000DF
:1028200010B50446AFF300802046BDE81040FDF728
:102830004ABDB2F120030AD5C2F1200301FA02F128
:1028400020FA03F300FA02F041EA0301704700FAAC
:1028500003F14FF00000704701491820ABBEFEE7BE
:102860002600020070475FEA400C08BF91F0000F9D
:102870004FEA8C234FEAC12243EA51514FEA1C50E0
:1028800018BF00F5F0404FEA300018BF41F000419A
:102890005FEA6C5C00F02980BCF1FF3F08BF40F0AC
:1028A00080407047130C06BF12044FF0100C4FF01D
:1028B000000C130E04BF12020CF1080C130F04BF1E
:1028C00012010CF1040C930F04BF92000CF1020CE6
:1028D000D30F04BF52000CF1010C11464FF000025F
:1028E000A0F11F00A0EB0C00704711F0004F08BFD3
:1028F000704731F000413FF4D5AF0B0C06BF09041F
:102900004FF0100C4FF0000C0B0E04BF09020CF13D
:10291000080C0B0F04BF09010CF1040C8B0F04BF52
:1029200089000CF1020CCB0F04BF49000CF1010C23
:10293000CCF12003A0EB0C0022FA03F302FA0CF214
:1029400041EA030100F10100704720F07F4C80EA6A
:10295000030023F07F47ACEB070303F57C5300F043
:10296000004003F1FF032DE980494FEA154B09B4FC
:102970004FEA144325EA0B4E24EA03480FF20426DB
:1029800006EB132749083E785FEA320203FB06672D
:10299000C7F5000707FB06F64FEA54374FEAD6465D
:1029A00006F1020607FB066CCCF1005C4FEA1C47FF
:1029B0002CEA074C07FB06F40CFB06F504EB154666
:1029C0004FEA961634BF00204FF000404FEAD1374F
:1029D00006FB07FC4FEA1C4C0CFB0BF7D21B03FB5E
:1029E0000CF761EB07010CFB0EF7B0EB074072EB45
:1029F00017420CFB08F734BFA2EB0742B2EB0742C9
:102A000061EB17414FEA0C444FEA910706FB07FCC4
:102A10004FEA1C4C0CFB0BF7B0EBC74072EB573284
:102A200003FB0CF734BFA2EBC742B2EBC74261EB2A
:102A300057310CFB0EF7B0EBC70072EB57720CFB73
:102A400008F734BFA2EBC702B2EBC70261EB5771C4
:102A5000039F4FEA816141EA921104EBCC044FEAF3
:102A6000D1374FEA826206FB07FC42EA90124FEA36
:102A700080604FEA1C4C0CFB0BF7D21B03FB0CF7DE
:102A800061EB07010CFB0EF7B0EB074072EB17424E
:102A90000CFB08F734BFA2EB0742B2EB074261EB35
:102AA00017414FEA8C554FEA910704EB9C2406FB33
:102AB00007FC4FEA1C4C0CFB0BF7B0EBC74072EB6A
:102AC000573203FB0CF734BFA2EBC742B2EBC7424D
:102AD00061EB57310CFB0EF7B0EBC70072EB57728E
:102AE0000CFB08F734BFA2EBC702B2EBC70261EBE5
:102AF000577115EB4C254FEA816141EA92114FEA7B
:102B000082624FEAD13742EA901206FB07FC44F199
:102B100000044FEA80604FEA1C4C0CFB0BF7D21B01
:102B200003FB0CF761EB07010CFB0EF7B0EB074062
:102B300072EB17420CFB08F734BFA2EB0742B2EB73
:102B4000074261EB174115EB1C154FEA813141EA51
:102B500092414FEA823242EA90424FEA80304FEA95
:102B60000C7644F1000448EA03434EEA0B484FF068
:102B7000000EB2EB080C71EB030724BF6246394626
:102B80004EEB0E0E4FF0000B0018524149414BEB3B
:102B90000B0BB2EB080C71EB03077BF1000B24BFAE
:102BA000624639464EEB0E0E4FF0000B00185241B4
:102BB00049414BEB0B0BB2EB080C71EB03077BF1BC
:102BC000000B24BF624639464EEB0E0E51EA020757
:102BD00018BF46F0010616EB0E7655F1000254F1CF
:102BE000000103D5BDE88901BDE80088BDE8890181
:102BF000BDE80048B619524141EB0101A3F10103C0
:102C0000704780807F7E7D7C7B7A79787776767559
:102C10007473727171706F6E6E6D6C6C6B6A6A69D1
:102C20006868676666656464636362616160605F6B
:102C30005F5E5E5D5D5C5C5B5B5A5A5959585857E4
:102C4000575656555555545453535252525151504C
:102C500050504F4F4F4E4E4D4D4D4C4C4C4B4B4B9F
:102C60004A4A4A49494948484847474747464646E5
:102C70004545454444444443434343424242424120
:102C80004141000046EA0646A3F570534FEA164656
:102C900046EA42564FEAD22242EA415210B54FEA82
:102CA000D121A3F1010300F02FF820F0004000F142
:102CB000020C00F0004701EB00501146BCF5006F1C
:102CC00040EA070000D210BDBAF1000F0AD01CB5CF
:102CD00003B44FF004004FF004014FF000000FBCAC
:102CE000BDE810404FF00001BBF1010FB9BF04482F
:102CF0004FF0FF310348002140EA070010BD00BF3C
:102D0000FFFFEF7F0000F07F002B9C4630D4770060
:102D10002BD01CB54FEA370703B44FF010004FF02B
:102D20001001BAF1000F06D0BCF1000FDCBF40F07B
:102D3000080040F008014FF000000FBCBDE8104053
:102D40000BF1010BBBF1010F08BF5FEA170722BFB0
:102D500012F1010211F101014FF0004143F10003B2
:102D600000F0004043EA00007047F9D35708D0E76D
:102D700046EA064613F1400F4FEA16461FDD13F1EF
:102D8000200FDFBF16430A46002120335B42BED02E
:102D9000C3F1200746EA064602FA07F74FEA16464D
:102DA00046EA0706C3F1200722FA03F201FA07F701
:102DB00021FA03F14FF0000342EA0702A7E746EACF
:102DC000020646EA06464FEA164646EA0106BCBF38
:102DD00046EA0646360C4FF000034FF000024FF073
:102DE000000194E72DE9804C9A46934670B491E82F
:102DF000380007C831EA400C48BF34EA430C03D519
:102E0000FFF7A3FDFFF780FFF0BCBDE8008C2DE9C4
:102E1000804C9A46934670B491E8380007C831EA6E
:102E2000400C48BF34EA430C03D5FFF78EFDFFF793
:102E300029FFF0BCBDE8008C2DE9804C9A469346F2
:102E400070B491E8380007C810F0804F08BF13F045
:102E5000804F03D100F01AF8FFF756FFF0BCBDE831
:102E6000008C2DE9804C9A46934670B491E8380066
:102E700007C810F0804F08BF13F0804F03D100F057
:102E800005F8FFF7FFFEF0BCBDE8008C20F07F479F
:102E900080EA030023F07F4C07EB0C03A3F57C537F
:102EA00000F00040A3F1FE0392F0000F00F0B380A9
:102EB00095F0000F00F077802DE901494FEA1140AD
:102EC0004FEA144621EA004800FB06FC24EA0647C4
:102ED00008FB06F607FB08F800FB07F718EB0648A7
:102EE0004CEB164C4FEA124B18EB07484FEA1546CD
:102EF0004CEB174022EA0B4E0BFB06FC25EA06477B
:102F00000EFB06F607FB0EFE0BFB07F71EEB064E4D
:102F10004CEB164C4FF000061EEB074E4CEB174BDC
:102F200018EB0B0840F1000018EB0E0B58EB0008F3
:102F300040F100008F1A4FF000013CBFC943661BEF
:102F400014BFB5EB040C00213CBFC943F61B4FEA8C
:102F500017444EEA8E0E27EA04454FEA1C4704FB4D
:102F600007622CEA074C05FB07F70CFB05F604FB90
:102F70000CFC16EB074642EB174216EB0C4642EBF5
:102F80001C421BEB060658EB0202414146EA9E0634
:102F900001D5BDE80189B619524141EB0101A3F108
:102FA0000103BDE801894FEA14454FEA114724EABD
:102FB000054621EA074C05FB07F406FB07F70CFB67
:102FC00006F105FB0CFC11EB074144EB17444FEAFB
:102FD000124711EB0C4144EB1C4422EA074C05FB61
:102FE00007F206FB07F70CFB06F605FB0CFC16EBDD
:102FF000074642EB174216EB0C4642EB1C456A189B
:1030000054F1000148BF7047B619524141EB01012C
:10301000A3F10103704795F0000F37D04FEA11423A
:103020004FEA144721EA024624EA074C02FB07F163
:1030300006FB07F70CFB06F402FB0CFC14EB074441
:1030400041EB17414FEA154714EB0C4441EB1C418F
:1030500025EA074C02FB07F506FB07F70CFB06F613
:1030600002FB0CFC16EB074645EB174516EB0C462E
:1030700045EB1C42121951F1000148BF7047B619C7
:10308000524141EB0101A3F1010370474FEA14459E
:103090004FEA114724EA054621EA074C05FB07F1F0
:1030A00006FB07F70CFB06F24FF0000605FB0CFCD5
:1030B00012EB074241EB174112EB0C4251EB1C4162
:1030C00048BF7047921841EB0101A3F1010370471B
:1030D000FEE70000024AD388038010890880704709
:1030E0009400002010B520210848FDF77DFC084819
:1030F000002181804170817004498088BDE81040C2
:1031000001440122034801F0D3BB0000884C002099
:1031100094000020B4000020F8B52C212148FDF7D0
:10312000A2FB04003DD0002727701E48FDF78EFB50
:1031300005B2601CFDF78AFB1B4C06B2207830B14B
:103140002B463246174919A0009602F0C3FC55EAF7
:10315000060003D0002D0BDA00250CE0A770677085
:10316000207800281DD0BDE8F8401AA002F0B2BCBB
:10317000F02D00DDF025002E01DA002602E0F02E11
:1031800000DDF026E58026810120A07060702078A7
:10319000002806D032462946BDE8F84013A002F0C8
:1031A00099BCF8BD884C0020940000205B43414D41
:1031B0002052585D205261773A202225732C2564D5
:1031C00022202D3E20583D256420593D25640D0ABE
:1031D000000000005B43414D5D204E6F2074617222
:1031E0006765742028302C30290D0A005B43414D5F
:1031F0005D205461726765742076616C69643A2061
:103200002825642C2564290D0A0000000149087056
:103210007047000094000020084A53785BB193780F
:103220004BB1D388783B0380108978380880002020
:10323000507001207047002070470000940000206B
:1032400070B5144C124DA0880026285C0A2808D0BE
:103250000D2806D0A0F13001092909D92C2807D062
:103260000DE0A08850B1A0882E54FFF755FF05E06F
:10327000A088401CA080A0881F2800D3A680A0881A
:103280002918BDE870400122034801F011BB00007D
:10329000884C002094000020B4000020014800F079
:1032A00099BA0000F4020020014800F093BA00002F
:1032B00094020020014800F08DBA00003402002082
:1032C000014800F087BA0000D4010020014800F056
:1032D00081BA00005403002001681823CAB2103AD2
:1032E000B2FBF3F2054B6FF30901032A9B5CC36544
:1032F00000D9091D81650846704700008C810008CF
:1033000010B5014600208B698A6A4FF0C07453B132
:10331000B3F5005F15D072B1012A0CD0022A0AD091
:10332000032A09D104E01AB1012A06D0022A03D1E6
:10333000C96AC90100D5012010BDC96AA142FAD0ED
:1033400010BD002AF7D0012AF2D0022AF3D0032AB6
:10335000F3D010BD704772B6FEE70000F0B5704CB8
:103360002DED048B89B0A07800287DD00027ADF822
:103370000470ADF81C70ADF82070ADF8187006A997
:1033800001A8FFF7A7FE08A907A8FFF745FF002837
:103390006BD001206070A760BDF91C0000EE100A20
:1033A0006048B8EEC00A01F0C7FCBDF92000F0EE9D
:1033B000408A00EE100A5B48B8EEC00A283001F0DF
:1033C000BBFCB0EE408A60780090F0EE480AB0EEA8
:1033D000680ABDF92030BDF91C20BDF91810BDF9EF
:1033E000040002F0CBFB207800B360680A21B0FB38
:1033F000F1F201FB1200C8B918EE100A04F0B4FD96
:1034000005460E4618EE900A04F0AEFD0A4602A9E3
:1034100081E86500BDF920000090BDF91C30BDF9C0
:103420001820BDF9041040A002F054FB6068401C55
:103430006060BDF91C0000EE100A3A48B8EEC00A00
:1034400090F82400F0EEC00A00EE100AB8EE400A30
:10345000F4EEC00AF1EE10FA3FD2BDF9200000EE02
:10346000100AB8EEC00A01E033E042E02D48F0EE69
:10347000C00A283090F8240000EE100AB8EE400A86
:10348000F4EEC00AF1EE10FA27D2E078401CC0B288
:10349000E0700A281DD30220607001F043FC6078C0
:1034A0000090F0EE480AB0EE680ABDF92030BDF990
:1034B0001C20BDF91810BDF9040002F05FFB207854
:1034C00030B1BDF91820BDF9041024A002F002FBB0
:1034D000E77009B0BDEC048BF0BD9FED279AE77053
:1034E00028EE890A01F05EFB28EE090A01F076FB5E
:1034F000EFE7A068401CA060217871B1012802D1DB
:103500001EA002F0E7FAA1683220B1FBF0F200FB46
:10351000121010B91DA002F0DDFA6770D8E70000A4
:10352000A0000020A84C0020547261636B3A205028
:103530006F735B25642C25645D2044656C74615B4E
:10354000252B642C252B645D205049445B252E31AE
:10355000662C252E31665D0D0A0000003E3E3E20A1
:103560004C4F434B4544206174205B25642C2564FB
:103570005D203C3C3C0D0A000AD7233C5461726735
:103580006574204C4F53540D0A0000005761697454
:10359000696E6720666F722063616D657261206479
:1035A0006174612E2E2E20286E6F2064617461205C
:1035B000666F72202564206379636C6573290D0A38
:1035C00000000000024800218170417001F0AABB98
:1035D000A000002070B5074C01200025A070657088
:1035E000054801F01DFC0448283001F019FCE57085
:1035F00070BD0000A0000020A84C002078B1012878
:103600000CD1084890ED000A81ED000A90ED010A06
:1036100082ED000A90ED020A83ED000A704701482E
:103620002838EFE7D04C0020014840787047000070
:10363000A000002010B518482DED028B9FED148AD4
:10364000DFED148AB0EE481AF0EE480AB0EE680AD0
:1036500001F0C8FB1048B0EE481AF0EE480AB0EE90
:10366000680A283001F0BEFB0B49082081F82400CD
:10367000283181F82400FFF735FD01F07EFA074973
:10368000002048708870C870BDEC028B10BD00002F
:103690000000000000001643A84C0020A0000020FD
:1036A00010B54FF4FA6000F0CFF901F066FA64202B
:1036B00000F0CAF9BBEE0E0A01F074FA4FF4FA7486
:1036C000204600F0C1F9B3EE0E0A01F06BFA204675
:1036D00000F0BAF9B2EE0E0A01F080FA204600F0CE
:1036E000B3F9BAEE0E0A01F079FA204600F0ACF90F
:1036F000BDE8104001F016BB01490870704700009A
:10370000A000002020B1012805D1034801F096BB9C
:1037100001482838FAE77047D04C00202DE9F041E5
:103720000446876D00F09AFA064694F835000025A5
:10373000022806D08020606584F834500120BDE85E
:10374000F0812068016821F016010160206841695C
:1037500021F080014161206C08B9A06C20B1206883
:10376000016821F0080101602068016821F0010171
:1037700001600CE000F072FA801B052807D92020B8
:103780006065032084F8350084F83450D7E720685A
:103790000068C007EED194F85C103F208840B86004
:1037A000012084F8350084F834500020C7E790F8F1
:1037B0003510022903D08021416501207047052181
:1037C00080F835100068016821F0010101600020D7
:1037D000704700002DE9F84304464FF00009CDF88A
:1037E000009063484FF41651A56D0068B0FBF1F7E7
:1037F0002E6894F85C10082000FA01F131420FD0D5
:1038000021680A6852070BD50A6822F004020A6090
:1038100094F85C108840A860606D40F0010060651D
:1038200094F85C104FF0010808FA01F0304208D01B
:1038300021684969090604D5A860606D40F002005E
:10384000606594F85C1004208840304208D02168FC
:103850000968890704D5A860606D40F004006065C0
:1038600094F85C1010208840304218D02168096814
:10387000090714D5A86020680168490304D50068C9
:10388000000308D5A16C07E00168C90503D40168ED
:1038900021F008010160216C09B12046884794F8A5
:1038A0005C1020208840304231D021680968C90668
:1038B0002DD5A86094F8350005282068016806D049
:1038C000490347D5006800031DD4616C1CE021F05A
:1038D000160101602068416921F080014161206C7E
:1038E00008B9A06C20B12068016821F008010160CE
:1038F00094F85C103F208840A86084F8358084F8F4
:103900003490216D1FE0E16B09B120468847606D5E
:1039100000282BD0606DC00714D0052084F8350036
:103920002068016821F0010101600098401C0090AE
:10393000B84203D820680068C007F6D184F8358003
:1039400084F83490E16C002910D001B02046BDE825
:10395000F04308470168C905D5D4016821F010017A
:10396000016084F8358084F83490CCE7BDE8F883B2
:10397000100000202DE9F041044600F06FF90646E2
:103980005CB1022084F83500002584F834502068AA
:10399000016821F0010101600DE00120BDE8F08126
:1039A00000F05CF9801B052805D920206065032004
:1039B00084F83500F2E720680068C007F0D122687B
:1039C000116820480140D4E901031843D4E90336C3
:1039D0003343184363691843A3691843E3691843E1
:1039E000236A18430843616A042903D1D4E90B13FD
:1039F00019430843106020684069666A20F0070197
:103A000030460E43012704280CD1A06A0643E06A21
:103A100040B12046FFF774FC20B14020606584F877
:103A20003570BAE7206846612046FFF755FC94F8E8
:103A30005C203F2191408160656584F835700020ED
:103A4000ACE700003F8010F070B5044600F006F9C6
:103A50000546601C02D004480078044400F0FEF8DB
:103A6000401BA042FAD370BD040000202DE9F84F9E
:103A7000DFF8BCA10022012503264FF00F090AF14F
:103A8000040BAAF1040E00BF0B6805FA02F42340F0
:103A9000A34270D10F7907F00307012F01D0022F45
:103AA00016D187684FEA420806FA08FC27EA0C0795
:103AB000D1F80CC00CFA08FC4CEA070CC0F808C09E
:103AC0004768A7430C79C4F3001494403C43446016
:103AD0000C79E443A4070AD0C4684FEA420C06FA02
:103AE0000CF7BC438F6807FA0CF72743C7600C79C3
:103AF00004F00304022C12D1D40800EB840CDCF88F
:103B000020405707FF0E09FA07F824EA0804D1F805
:103B1000108008FA07F848EA0408CCF82080046806
:103B20004FEA420C06FA0CF7BC430F7907F0030783
:103B300007FA0CF7274307604C6814F4403F70D035
:103B40003C4C276847F480472760246822F003072D
:103B500004F480440094384C07EB040CDCF808486B
:103B600097074FEA177809FA08F7BC43334FB84272
:103B700002D1002724E054E0314FB84201D101279F
:103B80001EE0304FB84201D1022719E02E4FB84253
:103B900001D1032714E02D4FB84201D104270FE0D3
:103BA0002B4FB84201D105270AE02A4FB84201D174
:103BB000062705E0284FB84201D1072700E0082773
:103BC00007FA08F72743CCF80878DAF80040574698
:103BD000D1F804C09C435FEACC2C00D51C433C6068
:103BE000DBF800405F46D1F804C09C435FEA8C2CB0
:103BF00000D51C433C60DEF800407746D1F804C095
:103C00009C435FEA8C3C00D51C433C60084F083F56
:103C10003C68D1F804C09C435FEACC3C00D51C430F
:103C20003C60521C102AFFF42FAFBDE8F88F000053
:103C3000083C01404438024000300140000002408E
:103C40000004024000080240000C02400010024044
:103C50000014024000180240001C02400148806825
:103C60007047000004000020024881680278114477
:103C700081607047040000200B4810B5016841F4D2
:103C800000710160016841F480610160016841F4E4
:103C900080710160032000F073F80F2000F006F837
:103CA00000F024F8002010BD003C024070B50D4D1E
:103CB00004464FF47A712878B1FBF0F00A4909689C
:103CC000B1FBF0F000F010FB48B9102C07D2002235
:103CD0002146501E00F034F800206C6070BD0120B9
:103CE00070BD000004000020100000200C4882B0CD
:103CF000016841F480410160006800F48040009058
:103D00000748001F016841F08051016000680022EF
:103D100000F0805000900F21901E02B000F010B80B
:103D200044380240002809DB00F01F0201219140C5
:103D30004009800000F1E020C0F800117047000049
:103D4000F0B40E4B1B680C46C3F30223C3F1070506
:103D5000042D00D90425191D072901D2002300E0F4
:103D6000DB1E012606FA05F1491E214099409E40BE
:103D7000761E16403143F0BC02F05BB90CED00E05A
:103D8000064900F0070208684FF6FF03184040EAB2
:103D90000220034A10430860704700000CED00E069
:103DA0000000FA052DE9F0470E46050065D0DFF862
:103DB0001481D8F80000F7B200F00700B04207D233
:103DC00088F80070D8F8000000F00700B04254D125
:103DD00028683D4C810712D5400703D5206840F480
:103DE000E05020602878000703D5206840F4604048
:103DF00020602068A96820F0F0000843206028783F
:103E0000C0072DD0304968680839012812D002282F
:103E100013D0032811D00968890700292DDA2168F9
:103E200021F0030101432160FFF718FF814641F2B1
:103E3000883A0EE009688903EFE709688901ECE731
:103E4000FFF70CFFA0EB0901514502D90320BDE8A3
:103E5000F0872068696800F00C00B0EB810FEFD1AB
:103E6000D8F80010404601F00701B14207D90770A9
:103E7000006800F00700B04201D00120E7E7287891
:103E8000400705D52068E96820F4E0500843206029
:103E90002878000706D52068296920F4604040EAA8
:103EA000C100206000F038F82168084AC1F303110E
:103EB000515CC8400649086006480068FFF7F6FEF6
:103EC0000020C4E7003C024008380240948100080A
:103ED0001000002008000020044805490068096817
:103EE000044AC1F38221515CC84070471000002091
:103EF00008380240A48100080448054900680968A0
:103F0000044AC1F34231515CC840704710000020A0
:103F100008380240A4810008154810B5006810F068
:103F20000C02144813D01449042A0FD0082A0ED1C9
:103F30000F4C241F2268236802F03F025B0207D562
:103F40002068C0F38810A0FB010106E0084610BD00
:103F50002168C1F38811A1FB00010023FCF73AFAA4
:103F60002168C1F30141491C4900B0FBF1F010BDCB
:103F7000083802400024F40040787D012DE9F84F14
:103F800004006ED02078DFF84C93C007A9F1040537
:103F90004AD009F104000168C1F38101012908D068
:103FA0000068C0F3810002280AD1D9F8000040025D
:103FB00006D52868800337D560680028E1D033E053
:103FC0006068B0F5803F10D0B0F5A02F286810D001
:103FD00020F480302860286820F480202860606801
:103FE000A8B1FFF73BFE06460DE0286840F480309C
:103FF000F4E740F480202860F7E700BFFFF72EFECB
:10400000801B642873D828688003F7D50CE0FFF77D
:1040100025FE064605E000BFFFF720FE801B642852
:10402000F0D828688003F7D42078DFF8AC828007C6
:104030004FF0000A3ED5A748001D016811F00C0F93
:1040400008D00068C0F3810002280BD1D9F8000025
:10405000400207D42868800716D5E068012800D1FF
:1040600012E033E1E068B8B10120C8F80000FFF7C2
:10407000F5FD064605E000BFFFF7F0FD801B0228B6
:10408000C0D828688007F7D52868216920F0F80093
:1040900040EAC10028600DE0C8F800A0FFF7DEFD8F
:1040A000064604E0FFF7DAFD801B02281FD82868C7
:1040B0008007F7D42078000722D5864F87486169AA
:1040C000703771B101210160FFF7C8FD064604E0B9
:1040D000FFF7C4FD801B022809D838688007F7D590
:1040E0000EE0C0F800A0FFF7B9FD064605E082E04B
:1040F000FFF7B4FD801B02287DD838688007F7D40D
:104100002078400768D5DFF8CCB100270BF13C0BD5
:10411000DBF80000C0000BD4DBF8001041F0805148
:10412000CBF80010DBF80000012700F08050009071
:104130006B4E3068C00510D4306840F48070306039
:10414000FFF78CFD009005E0FFF788FD0099401A0D
:10415000022850D83068C005F6D55E4EA0686C368F
:1041600001280FD00528306810D020F00100306001
:10417000306820F004003060A068B8B1FFF76EFD31
:1041800000900FE0306840F00100F4E740F00400D8
:104190003060F7E7FFF762FD0099411A41F288307D
:1041A000814266D830688007F4D50EE0FFF756FDEF
:1041B000009007E0FFF752FD0099411A41F2883064
:1041C000814256D830688007F4D42FB1DBF8001054
:1041D00021F08051CBF80010A069C8B33D49091DFA
:1041E0000968C1F3810102294AD00228504607D04C
:1041F000C8F8600000E03CE0FFF730FD04463BE01B
:104200004746C8F86000FFF729FD064605E000BFF5
:10421000FFF724FD801B02282BD828688001F7D4E3
:10422000D4E907010843A16A2E4A490802EB01417B
:10423000626A41EA8211084394F82C1040EA016155
:10424000C9F8001001203866FFF708FD044606E0B3
:104250003EE000BFFFF702FD001B022809D82868D6
:104260008001F7D534E000BFFFF7F8FC001B0228FF
:1042700002D90320BDE8F88F28688001F4D427E034
:104280000128F7D0D9F80000E26900F480019142DA
:104290001CD1226A00F03F01914217D147F6C0714C
:1042A000626A0140B1EB821F10D1A26A4FF0FF3366
:1042B00000F4403103EB5202B1EB024F06D194F807
:1042C0002C1000F07060B0EB016F01D00120D1E73D
:1042D0000020CFE70438024000004742800E4742EA
:1042E000007000400000FFFF10B5401EB0F1807F5D
:1042F00001D3012010BD4FF0E02460610F21601751
:1043000001F097FE0020A06107202061002010BD71
:1043100070477047F8B5016804460868CA684B6979
:1043200010F00F0F4FF0000559D003F0010602F412
:104330009077374365D0C10705D0D10503D5616CAF
:1043400041F001016164410705D5D90703D0616CD3
:1043500041F002016164810705D5D90703D0616C82
:1043600041F004016164010707D502F020013143E7
:1043700003D0616C41F008016164616C00293AD09E
:10438000800604D5900602D5204601F0E5FC2068A1
:104390004069616CC0F38010090700D460B3204607
:1043A00001F0B3FC20684069400621D52068143034
:1043B00050E8001F21F0400140E80012002AF5D12A
:1043C000E06BA8B172490165E06BFFF7F0F90028D6
:1043D00011D0E06B016D01B0BDE8F04008478306E5
:1043E0000FD593060DD52046BDE8F84001F0B4BCCA
:1043F0002046FFF78EFFF8BD2046FFF78AFF656471
:10440000F8BD266B2023012E7ED1C6067CD5D606AC
:104410007AD508684868009048694FF0020640065F
:104420004DD5E26B106840684FF480770004000CB3
:104430003AD0A18D814237D9E085D069B8422DD0DC
:1044400020680C3050E8001F21F4807140E8001211
:10445000002AF5D12068143050E8001F21F0010136
:1044600040E80012002AF5D12068143050E8001FFF
:1044700021F0400140E80012002AF5D184F84230D2
:10448000256320680C3050E8001F21F0100140E83F
:104490000012002AF5D1E06BFFF740F96663A08DAA
:1044A000E18D401A81B206E0A18D8142A8D1D06988
:1044B000B842A5D166632046FFF72AFFF8BDA08D5C
:1044C000E18D401A81B2E08D0028F7D00029F5D0A7
:1044D00020680C3050E8002F22F4907240E800274A
:1044E000002FF5D12068143050E8002F22F001028F
:1044F00040E80027002FF5D184F84230256320687A
:104500000C3050E8002F00E006E022F0100240E8F6
:104510000023002BF3D1CDE705062BD5150629D5B1
:1045200094F841002128C9D1A068B0F5805F01D17D
:104530002069B0B1206A411C21622168007848607E
:10454000E08C401E0004000CE084B7D12068C168F4
:1045500021F08001C1602068C16841F04001C16064
:10456000F8BD206A0088C0F308004860206A801CFB
:104570002062E5E74006F3D55006F1D5CA6820462B
:1045800022F04002CA6084F8413000F0FFF9F8BD23
:10459000FD5C000870B5040004D094F841000025CB
:1045A00010B106E0012070BD84F84050204600F0B4
:1045B00023F8242084F841002068C16821F40051C8
:1045C000C160204601F02AFC2068016921F4904175
:1045D00001612068416921F02A0141612068C168B8
:1045E00041F40051C1606564202084F8410084F8E2
:1045F00042006563002070BD2DE9F04F87B005468D
:1046000014216846FCF712FA9E489D4B143802218B
:10461000D5F800C0DFF86CE20322002407150E0471
:104620004FF0070A4FF000699C453ED1DEF800C00C
:104630004CF0100CCEF800C0DEF8003003F0100390
:104640000593036843F001030360006800F0010074
:10465000059050028DE81300CDE9032A69468A4887
:10466000FFF704FADFF8288288494046C8F80010AE
:10467000C0E90194C0E90347C8F820608915C8F86B
:104680001440C8E90641C8F82440FFF773F908B19F
:10469000FEF761FEC5F83C80002205212520C8F800
:1046A0003850FFF74DFB25205CE0764BDFF8E481C6
:1046B0001B1F4FF0400BC44559D1D3F800C04CF438
:1046C000003CC3F800C01B6803F400330593036883
:1046D00043F001030360006800F0010005900C2026
:1046E0008DE81300CDE9032A69466748FFF7BEF954
:1046F000DFF89C81684908F160084046CA46C0E975
:104700000347C8F81440C8F8184088E8020CC8E904
:104710000746B946C8F82440FFF72CF908B1FEF760
:104720001AFE5B4F5C48C5F83880C0371838C8F8A7
:1047300038503860C7E901A4C7E9034980157C6196
:10474000C7E90640C7E908643846FFF713F908B11E
:10475000FEF701FEEF63002205212620BD63FFF76F
:10476000EFFA2620FFF7DEFA07B0BDE8F08FDFF89A
:104770002C81C4453CD1D3F800C04CF4802CC3F844
:1047800000C01B6803F480230593036843F0020311
:104790000360006800F0020005904FF440608DE86F
:1047A0001300CDE9032A69463D48FFF75FF9DFF8BA
:1047B000F480394940464839C0E90347C8F81440F5
:1047C000C8F8184088E8020AC8E90746C8F8244033
:1047D000FFF7D0F808B1FEF7BEFDC5F8388000221B
:1047E00005212720C8F83850FFF7AAFA2720B9E793
:1047F0002D4B9C45B8D1DEF800C04CF0200CCEF813
:1048000000C0DEF8003003F020030593036843F096
:1048100004030360006800F004000590C0208DE8E8
:1048200013000820CDE9032069462048FFF71EF950
:10483000DFF87080154908F1600860314046C8F81B
:104840000010C0E90347C8F814404FF02061C8F8D1
:104850001840C0E9011BC8E90746C8F82440FFF723
:1048600089F808B1FEF777FDC5F8388000220521E8
:104870004720C8F83850FFF763FA472072E7000076
:1048800000100140443802400000024040640240F1
:10489000D401002000440040A060024000480040D5
:1048A00000040240F402002000140140000802400D
:1048B00090F84230202B01D00220704721B11AB16C
:1048C0000023036301F030BB0120704700680549F5
:1048D000884201D1FEF7B4BC0349884201D101F0FE
:1048E00011B9704700100140004400402DE9F84321
:1048F000044690F84100984616460D46202802D0FE
:104900000220BDE8F88385B17EB1002060642120DB
:1049100084F84100FFF7A2F9A6848146E684A068E6
:104920002027B0F5805F02D003E00120E9E720698D
:1049300010B12E4600250EE000260CE08021204616
:1049400001F00DFBA8B9C6B116F8010B216848604B
:10495000E08C401EE084E08C4B464FF00002CDF826
:1049600000800028EAD14FF04001204601F0F7FA1C
:1049700040B184F841700320C3E735F8020BC0F35F
:104980000800E3E784F841700020BAE77047FEE7CB
:104990001D4808B5016841F480010160016801F417
:1049A00080010091016841F400110160006800225B
:1049B00000F40010009005210E20FFF7C1F90E2031
:1049C000FFF7B0F9002205211020FFF7B9F91020F8
:1049D000FFF7A8F9002205211120FFF7B1F91120F6
:1049E000FFF7A0F9002205213A20FFF7A9F93A20A4
:1049F000FFF798F9002205214520FFF7A1F9BDE84E
:104A000008404520FFF78EB9303802401CB5094AEE
:104A10000021094801F0E0FC08494FF48072086069
:104A200000212820CDE900010B4605A1064802F02F
:104A30006FFE1CBD688100082D5C0008000000208E
:104A400047696D62616C0000355C0008114808B56B
:104A5000016841F004010160016801F00401009166
:104A6000016841F080010160016801F0800100915E
:104A7000016841F001010160016801F0010100914C
:104A8000016841F002010160006800F0020000903E
:104A900008BD0000303802400C4810B50A490160DA
:104AA0004FF4E1314160002181600C22C160C0E916
:104AB00004128161C161FFF76DFD002803D0BDE8DC
:104AC0001040FEF748BC10BD00100140B4000020AB
:104AD0000C4810B50A4901604FF4E13141600021F2
:104AE00081600C22C160C0E904128161C161FFF7DD
:104AF00051FD002803D0BDE81040FEF72CBC10BDCE
:104B000000440040FC0000200C4810B50A49016038
:104B10004FF4E1314160002181600C22C160C0E9A5
:104B200004128161C161FFF735FD002803D0BDE8A3
:104B30001040FEF710BC10BD0048004044010020AA
:104B40000C4810B50A4901604FF4E1314160002181
:104B500081600C22C160C0E904128161C161FFF76C
:104B600019FD002803D0BDE81040FEF7F4BB10BDCE
:104B7000001401408C010020FEE710B56420FEF710
:104B800063FF0121084600F045F83220FEF75CFF84
:104B90000121022000F03EF8BDE810403220FEF76F
:104BA00053BF0000F0EEC00A10EE900A0949884297
:104BB00002DA022000F092B8DFED070A05234FF475
:104BC000966220EE200A0220BDEEC00A10EE101AF6
:104BD00000F048B8CDCCCC3DE4380E41F0EEC00A30
:104BE00010EE900A0949884202DA012000F076B8F6
:104BF000DFED070A05234FF4966220EE200A01201C
:104C0000BDEEC00A10EE101A00F02CB8CDCCCC3D91
:104C1000E4380E411CB5F3228DF800008DF8012018
:104C2000AB228DF8022001B101218DF80310002183
:104C30008DF804106B218DF80510012809D0022889
:104C400006D1642305480622694600BFFFF74EFEE1
:104C50001CBD6423062269460148F7E74401002091
:104C60008C0100207FB5012404EBE174002900DAF7
:104C700049428DF80000FD258DF801508DF8024065
:104C8000140A8DF804208DF805300A0E8DF80620E0
:104C90000A0C8DF807200A0A8DF808208DF80910F3
:104CA00000218DF80A108DF80B106B210D228DF864
:104CB00003408DF80C10012807D0022804D164238A
:104CC00069460448FFF712FE7FBD64236946024827
:104CD000F8E70000440100208C0100201CB5FE21F3
:104CE0008DF800008DF8011098218DF80210002138
:104CF0008DF803106B218DF80410012809D00228CB
:104D000006D1642305480522694600BFFFF7EEFD82
:104D10001CBD6423052269460148F7E744010020D1
:104D20008C01002010B50220FFF7D8FFBDE810402D
:104D30000120FFF7D3BFFEE700B590F82410F0EE96
:104D4000400A00EE101AB0EEE01AB8EE400AB4EED7
:104D5000C01AF1EE10FA04D200F062F89FED200ABA
:104D600000BDC0ED030A90ED050A30EE200A80ED8B
:104D7000050A90ED071AB4EEC10AF1EE10FA06DC4E
:104D8000B1EE411AB4EEC10AF1EE10FA01D280ED93
:104D9000051A90ED040A30EEC01A80ED061A90ED67
:104DA000010AD0ED051A20EE210AD0ED001A01EE1D
:104DB000A00AD0ED021A01EE810A90ED081AB4EEB5
:104DC000C01AF1EE10FA06D3B1EE411AB4EEC01AD1
:104DD000F1EE10FA01DDB0EE410AC0ED040A00BDAB
:104DE0000000000080EC030A08219FED0A0A80ED14
:104DF000030A80ED040A80ED050A80ED060A9FEDA6
:104E0000060A80ED070A9FED050A80ED080A80F882
:104E100024107047000000000000C8420000484312
:104E20009FED050A80ED030A80ED040A80ED050A76
:104E300080ED060A704700000000000080EC030AC5
:104E400070470000F0B58DB004460D21FBF70BFD57
:104E5000002500B105700A212046FBF704FD00B1D2
:104E600005702046FBF709FD002873D021467CA081
:104E700000F030FE7CA12046FBF700FE002856D053
:104E80007BA12046FBF7FAFD002868D004227AA116
:104E90002046FBF711FD00286FD0052278A120469F
:104EA000FBF70AFD002869D077A12046FBF7E6FD55
:104EB00000286FD076A12046FBF7E0FD00286AD0DD
:104EC00075A12046FBF7DAFD00287DD074A12046AD
:104ED000FBF7D4FD002878D073A12046FBF7CEFD68
:104EE000744E002872D074A12046FBF7C7FD00283D
:104EF0006DD074A12046FBF7C1FD002868D073A1D6
:104F00002046FBF7BBFD00287ED072A12046FBF7B0
:104F1000B5FD002879D071A12046FBF7AFFD002830
:104F200074D070A00DB0BDE8F04000F0D3BD7BA000
:104F300000F0D0FD7CA000F0CDFD84A000F0CAFD03
:104F40008CA000F0C7FD97A000F0C4FDA0A000F069
:104F5000C1FD00E071E2ABA000F0BCFD00E01BE091
:104F6000B6A000F0B7FDC2A000F0B4FDC8A000F0EC
:104F7000B1FDD2A000F0AEFD01E062E0A0E2DAA057
:104F800000F0A8FDE1A000F0A5FDEDA000F0A2FD5D
:104F9000F7A0C7E7C6E2C9E20CAB0BAA0AA900203A
:104FA000FEF72CFB06AB05AA04A90120FEF726FBA1
:104FB000FEF73AFBFA4A044607AB07CA83E8070044
:104FC000F8A000F087FD04E0B4E2B7E2BDE2C0E281
:104FD000C2E207A850F82410F8A000F07BFD0C985E
:104FE00002F0C2FF06460F460B9802F0BDFF0446D2
:104FF0000D460A9802F0B8FF8DE8F00041EC100B66
:10500000F1A053EC102B02E0ABE2AFE2B3E200F010
:1050100061FD069802F0A8FF06460F46059802F0CB
:10502000A3FF04460D46049802F09EFF8DE8F000B1
:1050300041EC100BEDA053EC102B00F04BFDF4A055
:10504000F9E106A905A8CDE9000104AB07AAF6A17C
:10505000201DFBF76DFB042800D0EBE1EFE1000021
:105060003E2025730D0A000068656C70000000008A
:10507000737461747573000070696420000000002F
:105080006D6F76652000000073746F700000000083
:10509000656E61626C65000064697361626C6500D5
:1050A00074657374000000006465627567206F6E3C
:1050B00000000000AC0000206465627567206F6628
:1050C000660000006C6F67206F6E00006C6F6720D9
:1050D0006F66660063616D206F6E000063616D2016
:1050E0006F666600556E6B6E6F776E20636F6D6DC9
:1050F000616E642E2054797065202768656C702776
:1051000020666F7220617661696C61626C652063F4
:105110006F6D6D616E64732E0D0A0000436F6D6DCF
:10512000616E64733A0D0A00202068656C7020205F
:1051300020202020202020202D2053686F772074ED
:105140006869732068656C700D0A00002020737414
:105150006174757320202020202020202D2053688A
:105160006F772073797374656D20737461747573D0
:105170000D0A000020207069642068203C6B703E9E
:10518000203C6B693E203C6B643E202D20536574AF
:1051900020686F72697A6F6E74616C205049440D9B
:1051A0000A00000020207069642076203C6B703E6D
:1051B000203C6B693E203C6B643E202D205365747F
:1051C00020766572746963616C205049440D0A0051
:1051D0002020646561647A6F6E65203C76616C7531
:1051E000653E20202020202D2053657420646561B9
:1051F000647A6F6E652028706978656C73290D0A72
:105200000000000020206D6F76652068203C616EF4
:10521000676C653E202020202020202D204D6F76B9
:105220006520686F72697A6F6E74616C202864659E
:105230006772656573290D0A0000000020206D6FFC
:1052400076652076203C616E676C653E20202020CC
:105250002020202D204D6F7665207665727469635D
:10526000616C202864656772656573290D0A00000A
:10527000202073746F7020202020202020202020E8
:105280002D2053746F70206D6F746F72730D0A0050
:105290002020656E61626C65202020202020202067
:1052A0002D20456E61626C652067696D62616C20BE
:1052B000636F6E74726F6C0D0A00000020206469C9
:1052C0007361626C65202020202020202D204469FD
:1052D0007361626C652067696D62616C20636F6EDB
:1052E00074726F6C0D0A00002020746573742020A6
:1052F00020202020202020202D2052756E20736534
:105300006C6620746573740D0A00000020206465CB
:10531000627567206F6E2F6F666620202D20456EA8
:1053200061626C652F64697361626C65206461748D
:105330006120666565646261636B0D0A00000000B0
:1053400020206C6F67206F6E2F6F666620202020F4
:105350002D20456E61626C652F64697361626C65B6
:10536000206465627567206F75747075740D0A002E
:10537000202063616D206F6E2F6F666620202020D5
:105380002D20456E61626C652F64697361626C6586
:105390002063616D6572612064656275670D0A0046
:1053A000AC8100083D3D3D2053797374656D2053F9
:1053B0007461747573203D3D3D0D0A005374617432
:1053C000653A2025730D0A005049445F483A204B46
:1053D000703D252E3266204B693D252E3366204BCD
:1053E000643D252E32660D0A000000005049445FDE
:1053F000563A204B703D252E3266204B693D252EB6
:105400003366204B643D252E32660D0A00000000F5
:105410003D3D3D3D3D3D3D3D3D3D3D3D3D3D3D3DBC
:105420003D3D3D3D0D0A0000256320256620256693
:105430002025660052A000F04DFB0DB0F0BD9DF898
:105440001C00682806D0482804D076281BD056288F
:1054500019D049E004A9002091EC030AFEF752F9A3
:10546000069802F081FD06460F46059802F07CFD85
:1054700004460D46049802F077FD41EC100B4BA05A
:1054800053EC102B17E004A9012091EC030AFEF75E
:1054900039F9069802F068FD06460F46059802F0B5
:1054A00063FD04460D46049802F05EFD41EC100BCE
:1054B0004AA053EC102B8DE8F00000F00BFBBCE78A
:1054C0006B4601AA50A1601DFBF732F9022801D0FA
:1054D0004FA0B0E79DF80400682807D0482805D001
:1054E000762810D056280ED052A0A4E79DED000AD1
:1054F000FFF758FB009802F037FD41EC100B57A066
:1055000053EC102B0BE09DED000AFFF767FB0098B2
:1055100002F02AFD41EC100B59A053EC102B00F0C7
:10552000D9FA8AE7FFF7FEFB5DA0FBE4FEF752F82D
:1055300060A0F7E4FEF746F865A0F3E46BA000F086
:10554000C9FAFEF7ADF86FA0ECE40120B07073A0CB
:10555000E8E4B57077A0E5E40120FEF7CDF87CA083
:10556000E0E40020FEF7C8F87FA0DBE40120FDF7AF
:105570004DFE83A0D6E40020FDF748FE88A0D1E4CC
:105580004572726F723A2055736167653A2070698F
:1055900064203C687C763E203C6B703E203C6B690E
:1055A0003E203C6B643E0D0A00000000486F7269AB
:1055B0007A6F6E74616C20504944207365743A2090
:1055C0004B703D252E3266204B693D252E336620DB
:1055D0004B643D252E32660D0A000000566572743C
:1055E0006963616C20504944207365743A204B70A4
:1055F0003D252E3266204B693D252E3366204B64B7
:105600003D252E32660D0A00256320256600000028
:105610004572726F723A2055736167653A206D6FFB
:105620007665203C687C763E203C616E676C653E0A
:105630000D0A00004572726F723A20496E76616CF5
:10564000696420617869732028757365202768274D
:10565000206F7220277627290D0A00004D6F76698A
:105660006E6720686F72697A6F6E74616C3A20257C
:105670002E326620646567726565730D0A0000004E
:105680004D6F76696E6720766572746963616C3AF6
:1056900020252E326620646567726565730D0A00E9
:1056A0004D6F746F72732073746F707065640D0A40
:1056B0000000000047696D62616C20636F6E747258
:1056C0006F6C20656E61626C65640D0A00000000FD
:1056D00047696D62616C20636F6E74726F6C2064D9
:1056E000697361626C65640D0A00000052756E6E2C
:1056F000696E672073656C6620746573742E2E2E38
:105700000D0A000053656C66207465737420636F26
:105710006D706C657465640D0A000000446174610D
:1057200020666565646261636B20656E61626C65AD
:10573000640D0A004461746120666565646261639A
:105740006B2064697361626C65640D0A000000007F
:105750004465627567206F757470757420656E613D
:10576000626C65640D0A00004465627567206F75A0
:10577000747075742064697361626C65640D0A00ED
:1057800043616D657261206465627567206F757431
:1057900070757420656E61626C65640D0A000000AE
:1057A00043616D657261206465627567206F757411
:1057B0007075742064697361626C65640D0A000021
:1057C0001E4910B5002008700122491C1C48FFF733
:1057D0006FF86420FEF738F91AA000F07BF921A0D9
:1057E00000F078F922A000F075F92AA000F072F913
:1057F00032A000F06FF93DA000F06CF946A000F077
:1058000069F953A000F066F95EA000F063F965A0A5
:1058100000F060F96EA000F05DF978A000F05AF990
:105820007FA000F057F98BA000F054F995A000F08C
:1058300051F9BDE810409FA000F04CB9AC00002029
:10584000FC0000200D0A3D3D3D2047696D62616C02
:105850002053657269616C204465627567203D3D27
:105860003D0D0A00436F6D6D616E64733A0D0A0061
:10587000202068656C7020202020202020202020FF
:105880002D2053686F7720746869732068656C7089
:105890000D0A00002020737461747573202020208D
:1058A000202020202D2053686F7720737973746532
:1058B0006D207374617475730D0A00002020706987
:1058C000642068203C6B703E203C6B693E203C6B42
:1058D000643E202D2053657420686F72697A6F6E64
:1058E00074616C205049440D0A000000202070694A
:1058F000642076203C6B703E203C6B693E203C6B04
:10590000643E202D2053657420766572746963614E
:105910006C205049440D0A0020206D6F7665206888
:10592000203C616E676C653E202020202020202DC9
:10593000204D6F766520686F72697A6F6E74616C46
:10594000202864656772656573290D0A00000000F0
:1059500020206D6F76652076203C616E676C653E19
:10596000202020202020202D204D6F766520766578
:1059700072746963616C2028646567726565732958
:105980000D0A0000202073746F702020202020203A
:10599000202020202D2053746F70206D6F746F7243
:1059A000730D0A002020656E61626C652020202046
:1059B000202020202D20456E61626C652067696D76
:1059C00062616C20636F6E74726F6C0D0A00000070
:1059D000202064697361626C6520202020202020D3
:1059E0002D2044697361626C652067696D62616C2A
:1059F00020636F6E74726F6C0D0A00002020746556
:105A00007374202020202020202020202D2052755B
:105A10006E2073656C6620746573740D0A00000057
:105A200020206465627567206F6E2F6F6666202088
:105A30002D20456E61626C652F64697361626C65CF
:105A4000206461746120666565646261636B0D0A40
:105A50000000000020206C6F67206F6E2F6F66665D
:105A6000202020202D20456E61626C652F646973B3
:105A700061626C65206465627567206F757470750E
:105A8000740D0A00202063616D206F6E2F6F6666B3
:105A9000202020202D20456E61626C652F64697383
:105AA00061626C652063616D657261206465627519
:105AB000670D0A003D3D3D3D3D3D3D3D3D3D3D3D8C
:105AC0003D3D3D3D3D3D3D3D3D3D3D3D3D3D3D0D36
:105AD0000A0A00000FB44FF4807100B5C1B043ABA7
